{
  "contractName": "TicTacToe",
  "abi": [
    {
      "anonymous": false,
      "inputs": [
        {
          "indexed": false,
          "name": "gameIndex",
          "type": "uint256"
        },
        {
          "indexed": false,
          "name": "free",
          "type": "bool"
        },
        {
          "indexed": false,
          "name": "name",
          "type": "string"
        }
      ],
      "name": "NewGame",
      "type": "event"
    },
    {
      "anonymous": false,
      "inputs": [
        {
          "indexed": false,
          "name": "id",
          "type": "uint256"
        },
        {
          "indexed": false,
          "name": "name",
          "type": "string"
        }
      ],
      "name": "PlayerJoinedGame",
      "type": "event"
    },
    {
      "anonymous": false,
      "inputs": [
        {
          "indexed": false,
          "name": "gameIndex",
          "type": "uint256"
        },
        {
          "indexed": false,
          "name": "row",
          "type": "uint256"
        },
        {
          "indexed": false,
          "name": "col",
          "type": "uint256"
        }
      ],
      "name": "PlayerMadeMove",
      "type": "event"
    },
    {
      "constant": false,
      "inputs": [
        {
          "name": "name",
          "type": "string"
        },
        {
          "name": "password",
          "type": "string"
        }
      ],
      "name": "addPlayer",
      "outputs": [],
      "payable": false,
      "stateMutability": "nonpayable",
      "type": "function"
    },
    {
      "constant": false,
      "inputs": [
        {
          "name": "name",
          "type": "string"
        },
        {
          "name": "id",
          "type": "uint256"
        },
        {
          "name": "password",
          "type": "string"
        }
      ],
      "name": "login",
      "outputs": [],
      "payable": false,
      "stateMutability": "nonpayable",
      "type": "function"
    },
    {
      "constant": false,
      "inputs": [
        {
          "name": "Len",
          "type": "uint256"
        },
        {
          "name": "password",
          "type": "string"
        }
      ],
      "name": "createGame",
      "outputs": [],
      "payable": false,
      "stateMutability": "nonpayable",
      "type": "function"
    },
    {
      "constant": false,
      "inputs": [
        {
          "name": "gameInd",
          "type": "uint256"
        },
        {
          "name": "password",
          "type": "string"
        }
      ],
      "name": "joinGame",
      "outputs": [],
      "payable": false,
      "stateMutability": "nonpayable",
      "type": "function"
    },
    {
      "constant": false,
      "inputs": [
        {
          "name": "gameInd",
          "type": "uint256"
        },
        {
          "name": "row",
          "type": "uint256"
        },
        {
          "name": "col",
          "type": "uint256"
        }
      ],
      "name": "move",
      "outputs": [],
      "payable": false,
      "stateMutability": "nonpayable",
      "type": "function"
    },
    {
      "constant": false,
      "inputs": [
        {
          "name": "gameInd",
          "type": "uint256"
        },
        {
          "name": "winner",
          "type": "int256"
        }
      ],
      "name": "finishGame",
      "outputs": [],
      "payable": false,
      "stateMutability": "nonpayable",
      "type": "function"
    },
    {
      "constant": true,
      "inputs": [],
      "name": "getNumPlayed",
      "outputs": [
        {
          "name": "",
          "type": "uint256"
        }
      ],
      "payable": false,
      "stateMutability": "view",
      "type": "function"
    },
    {
      "constant": true,
      "inputs": [],
      "name": "getNumWin",
      "outputs": [
        {
          "name": "",
          "type": "uint256"
        }
      ],
      "payable": false,
      "stateMutability": "view",
      "type": "function"
    },
    {
      "constant": true,
      "inputs": [],
      "name": "getPlayerId",
      "outputs": [
        {
          "name": "",
          "type": "uint256"
        }
      ],
      "payable": false,
      "stateMutability": "view",
      "type": "function"
    },
    {
      "constant": true,
      "inputs": [],
      "name": "getGameId",
      "outputs": [
        {
          "name": "",
          "type": "uint256"
        }
      ],
      "payable": false,
      "stateMutability": "view",
      "type": "function"
    }
  ],
  "bytecode": "0x608060405234801561001057600080fd5b50613d15806100206000396000f3fe60806040526004361061009e576000357c0100000000000000000000000000000000000000000000000000000000900480635cb119a9146100a35780635ff628241461020257806368880a261461036b5780636e3ba0331461043d5780637b23e11b14610468578063a52169a4146104ad578063ac4366601461057f578063bff304dd146105aa578063c0bd8351146105d5578063fa7c9bcf14610600575b600080fd5b3480156100af57600080fd5b50610200600480360360408110156100c657600080fd5b81019080803590602001906401000000008111156100e357600080fd5b8201836020820111156100f557600080fd5b8035906020019184600183028401116401000000008311171561011757600080fd5b91908080601f016020809104026020016040519081016040528093929190818152602001838380828437600081840152601f19601f8201169050808301925050505050505091929192908035906020019064010000000081111561017a57600080fd5b82018360208201111561018c57600080fd5b803590602001918460018302840111640100000000831117156101ae57600080fd5b91908080601f016020809104026020016040519081016040528093929190818152602001838380828437600081840152601f19601f82011690508083019250505050505050919291929050505061064f565b005b34801561020e57600080fd5b506103696004803603606081101561022557600080fd5b810190808035906020019064010000000081111561024257600080fd5b82018360208201111561025457600080fd5b8035906020019184600183028401116401000000008311171561027657600080fd5b91908080601f016020809104026020016040519081016040528093929190818152602001838380828437600081840152601f19601f82011690508083019250505050505050919291929080359060200190929190803590602001906401000000008111156102e357600080fd5b8201836020820111156102f557600080fd5b8035906020019184600183028401116401000000008311171561031757600080fd5b91908080601f016020809104026020016040519081016040528093929190818152602001838380828437600081840152601f19601f820116905080830192505050505050509192919290505050610894565b005b34801561037757600080fd5b5061043b6004803603604081101561038e57600080fd5b8101908080359060200190929190803590602001906401000000008111156103b557600080fd5b8201836020820111156103c757600080fd5b803590602001918460018302840111640100000000831117156103e957600080fd5b91908080601f016020809104026020016040519081016040528093929190818152602001838380828437600081840152601f19601f820116905080830192505050505050509192919290505050610d44565b005b34801561044957600080fd5b50610452611870565b6040518082815260200191505060405180910390f35b34801561047457600080fd5b506104ab6004803603604081101561048b57600080fd5b8101908080359060200190929190803590602001909291905050506119c0565b005b3480156104b957600080fd5b5061057d600480360360408110156104d057600080fd5b8101908080359060200190929190803590602001906401000000008111156104f757600080fd5b82018360208201111561050957600080fd5b8035906020019184600183028401116401000000008311171561052b57600080fd5b91908080601f016020809104026020016040519081016040528093929190818152602001838380828437600081840152601f19601f820116905080830192505050505050509192919290505050612222565b005b34801561058b57600080fd5b50610594612b9f565b6040518082815260200191505060405180910390f35b3480156105b657600080fd5b506105bf612cef565b6040518082815260200191505060405180910390f35b3480156105e157600080fd5b506105ea612e3f565b6040518082815260200191505060405180910390f35b34801561060c57600080fd5b5061064d6004803603606081101561062357600080fd5b81019080803590602001909291908035906020019092919080359060200190929190505050612f8f565b005b33600080600154815260200190815260200160002060000160006101000a81548173ffffffffffffffffffffffffffffffffffffffff021916908373ffffffffffffffffffffffffffffffffffffffff16021790555081600080600154815260200190815260200160002060010190805190602001906106d0929190613ac2565b50600154600080600154815260200190815260200160002060020181905550806000806001548152602001908152602001600020600301908051906020019061071a929190613ac2565b50600080600060015481526020019081526020016000206004018190555060008060006001548152602001908152602001600020600501819055506000806001548152602001908152602001600020600460003373ffffffffffffffffffffffffffffffffffffffff1673ffffffffffffffffffffffffffffffffffffffff1681526020019081526020016000206000820160009054906101000a900473ffffffffffffffffffffffffffffffffffffffff168160000160006101000a81548173ffffffffffffffffffffffffffffffffffffffff021916908373ffffffffffffffffffffffffffffffffffffffff16021790555060018201816001019080546001816001161561010002031660029004610836929190613b42565b506002820154816002015560038201816003019080546001816001161561010002031660029004610868929190613b42565b506004820154816004015560058201548160050155905050600160008154600101919050819055505050565b600154821080156108a6575060008210155b151561091a576040517f08c379a000000000000000000000000000000000000000000000000000000000815260040180806020018281038252600b8152602001807f696e76616c69642069642100000000000000000000000000000000000000000081525060200191505060405180910390fd5b826040516020018082805190602001908083835b602083101515610953578051825260208201915060208101905060208303925061092e565b6001836020036101000a038019825116818451168082178552505050505050905001915050604051602081830303815290604052805190602001206000808481526020019081526020016000206001016040516020018082805460018160011615610100020316600290048015610a015780601f106109df576101008083540402835291820191610a01565b820191906000526020600020905b8154815290600101906020018083116109ed575b505091505060405160208183030381529060405280519060200120148015610b285750806040516020018082805190602001908083835b602083101515610a5d5780518252602082019150602081019050602083039250610a38565b6001836020036101000a038019825116818451168082178552505050505050905001915050604051602081830303815290604052805190602001206000808481526020019081526020016000206003016040516020018082805460018160011615610100020316600290048015610b0b5780601f10610ae9576101008083540402835291820191610b0b565b820191906000526020600020905b815481529060010190602001808311610af7575b505091505060405160208183030381529060405280519060200120145b1515610bc2576040517f08c379a000000000000000000000000000000000000000000000000000000000815260040180806020018281038252602b8152602001807f696e76616c6964206e616d65206f722070617373776f72642c20706c6561736581526020017f2074727920616761696e2e00000000000000000000000000000000000000000081525060400191505060405180910390fd5b3360008084815260200190815260200160002060000160006101000a81548173ffffffffffffffffffffffffffffffffffffffff021916908373ffffffffffffffffffffffffffffffffffffffff160217905550600080838152602001908152602001600020600460003373ffffffffffffffffffffffffffffffffffffffff1673ffffffffffffffffffffffffffffffffffffffff1681526020019081526020016000206000820160009054906101000a900473ffffffffffffffffffffffffffffffffffffffff168160000160006101000a81548173ffffffffffffffffffffffffffffffffffffffff021916908373ffffffffffffffffffffffffffffffffffffffff16021790555060018201816001019080546001816001161561010002031660029004610cf5929190613b42565b506002820154816002015560038201816003019080546001816001161561010002031660029004610d27929190613b42565b506004820154816004015560058201548160050155905050505050565b600073ffffffffffffffffffffffffffffffffffffffff16600460003373ffffffffffffffffffffffffffffffffffffffff1673ffffffffffffffffffffffffffffffffffffffff16815260200190815260200160002060000160009054906101000a900473ffffffffffffffffffffffffffffffffffffffff1673ffffffffffffffffffffffffffffffffffffffff1614151515610e4b576040517f08c379a00000000000000000000000000000000000000000000000000000000081526004018080602001828103825260158152602001807f506c656173652c206c6f6720696e2066697273742e000000000000000000000081525060200191505060405180910390fd5b60035482101515610ec4576040517f08c379a000000000000000000000000000000000000000000000000000000000815260040180806020018281038252600f8152602001807f4e6f20737563682067616d65203a28000000000000000000000000000000000081525060200191505060405180910390fd5b6002600083815260200190815260200160002060000160000160009054906101000a900473ffffffffffffffffffffffffffffffffffffffff1673ffffffffffffffffffffffffffffffffffffffff163373ffffffffffffffffffffffffffffffffffffffff1614151515610fa1576040517f08c379a000000000000000000000000000000000000000000000000000000000815260040180806020018281038252601d8152602001807f596f752061726520616c726561647920696e20746869732067616d652100000081525060200191505060405180910390fd5b600073ffffffffffffffffffffffffffffffffffffffff166002600084815260200190815260200160002060060160000160009054906101000a900473ffffffffffffffffffffffffffffffffffffffff1673ffffffffffffffffffffffffffffffffffffffff1614151561107e576040517f08c379a000000000000000000000000000000000000000000000000000000000815260040180806020018281038252601c8152602001807f546869732067616d6520697320616c72656164792066756c6c203a280000000081525060200191505060405180910390fd5b806040516020018082805190602001908083835b6020831015156110b75780518252602082019150602081019050602083039250611092565b6001836020036101000a038019825116818451168082178552505050505050905001915050604051602081830303815290604052805190602001206002600084815260200190815260200160002060110160405160200180828054600181600116156101000203166002900480156111665780601f10611144576101008083540402835291820191611166565b820191906000526020600020905b815481529060010190602001808311611152575b5050915050604051602081830303815290604052805190602001201415156111f6576040517f08c379a00000000000000000000000000000000000000000000000000000000081526004018080602001828103825260138152602001807f496e636f72726563742050617373776f7264210000000000000000000000000081525060200191505060405180910390fd5b60026000838152602001908152602001600020600001600501600081546001019190508190555060026000838152602001908152602001600020600001600460006002600086815260200190815260200160002060000160000160009054906101000a900473ffffffffffffffffffffffffffffffffffffffff1673ffffffffffffffffffffffffffffffffffffffff1673ffffffffffffffffffffffffffffffffffffffff1681526020019081526020016000206000820160009054906101000a900473ffffffffffffffffffffffffffffffffffffffff168160000160006101000a81548173ffffffffffffffffffffffffffffffffffffffff021916908373ffffffffffffffffffffffffffffffffffffffff16021790555060018201816001019080546001816001161561010002031660029004611339929190613b42565b50600282015481600201556003820181600301908054600181600116156101000203166002900461136b929190613b42565b50600482015481600401556005820154816005015590505060026000838152602001908152602001600020600001600080600260008681526020019081526020016000206000016002015481526020019081526020016000206000820160009054906101000a900473ffffffffffffffffffffffffffffffffffffffff168160000160006101000a81548173ffffffffffffffffffffffffffffffffffffffff021916908373ffffffffffffffffffffffffffffffffffffffff16021790555060018201816001019080546001816001161561010002031660029004611452929190613b42565b506002820154816002015560038201816003019080546001816001161561010002031660029004611484929190613b42565b506004820154816004015560058201548160050155905050600460003373ffffffffffffffffffffffffffffffffffffffff1673ffffffffffffffffffffffffffffffffffffffff1681526020019081526020016000206005016000815460010191905081905550600460003373ffffffffffffffffffffffffffffffffffffffff1673ffffffffffffffffffffffffffffffffffffffff168152602001908152602001600020600260008481526020019081526020016000206006016000820160009054906101000a900473ffffffffffffffffffffffffffffffffffffffff168160000160006101000a81548173ffffffffffffffffffffffffffffffffffffffff021916908373ffffffffffffffffffffffffffffffffffffffff160217905550600182018160010190805460018160011615610100020316600290046115cf929190613b42565b506002820154816002015560038201816003019080546001816001161561010002031660029004611601929190613b42565b506004820154816004015560058201548160050155905050600460003373ffffffffffffffffffffffffffffffffffffffff1673ffffffffffffffffffffffffffffffffffffffff168152602001908152602001600020600080600260008681526020019081526020016000206006016002015481526020019081526020016000206000820160009054906101000a900473ffffffffffffffffffffffffffffffffffffffff168160000160006101000a81548173ffffffffffffffffffffffffffffffffffffffff021916908373ffffffffffffffffffffffffffffffffffffffff16021790555060018201816001019080546001816001161561010002031660029004611711929190613b42565b506002820154816002015560038201816003019080546001816001161561010002031660029004611743929190613b42565b506004820154816004015560058201548160050155905050600160026000848152602001908152602001600020600e0160006101000a81548160ff0219169083600381111561178e57fe5b02179055507fcf6b9c7198de0ae807279825e850ed2b1f03cf418ca95aa690078ef197070b548260026000858152602001908152602001600020600601600101604051808381526020018060200182810382528381815460018160011615610100020316600290048152602001915080546001816001161561010002031660029004801561185d5780601f106118325761010080835404028352916020019161185d565b820191906000526020600020905b81548152906001019060200180831161184057829003601f168201915b5050935050505060405180910390a15050565b60008073ffffffffffffffffffffffffffffffffffffffff16600460003373ffffffffffffffffffffffffffffffffffffffff1673ffffffffffffffffffffffffffffffffffffffff16815260200190815260200160002060000160009054906101000a900473ffffffffffffffffffffffffffffffffffffffff1673ffffffffffffffffffffffffffffffffffffffff1614151515611978576040517f08c379a00000000000000000000000000000000000000000000000000000000081526004018080602001828103825260158152602001807f506c656173652c206c6f6720696e2066697273742e000000000000000000000081525060200191505060405180910390fd5b600460003373ffffffffffffffffffffffffffffffffffffffff1673ffffffffffffffffffffffffffffffffffffffff16815260200190815260200160002060040154905090565b60035482101515611a39576040517f08c379a000000000000000000000000000000000000000000000000000000000815260040180806020018281038252600f8152602001807f4e6f20737563682067616d65203a28000000000000000000000000000000000081525060200191505060405180910390fd5b6002600083815260200190815260200160002060000160000160009054906101000a900473ffffffffffffffffffffffffffffffffffffffff1673ffffffffffffffffffffffffffffffffffffffff163373ffffffffffffffffffffffffffffffffffffffff161480611b1057506002600083815260200190815260200160002060060160000160009054906101000a900473ffffffffffffffffffffffffffffffffffffffff1673ffffffffffffffffffffffffffffffffffffffff163373ffffffffffffffffffffffffffffffffffffffff16145b1515611b84576040517f08c379a000000000000000000000000000000000000000000000000000000000815260040180806020018281038252601c8152602001807f596f7520617265206e6f7420696e20746869732067616d65202d5f2d0000000081525060200191505060405180910390fd5b600380811115611b9057fe5b60026000848152602001908152602001600020600e0160009054906101000a900460ff166003811115611bbf57fe5b1415611bca5761221e565b600360026000848152602001908152602001600020600e0160006101000a81548160ff02191690836003811115611bfd57fe5b02179055506000811415611c485760006002600084815260200190815260200160002060100160006101000a81548160ff02191690836003811115611c3e57fe5b021790555061221d565b6001811415611f345760016002600084815260200190815260200160002060100160006101000a81548160ff02191690836003811115611c8457fe5b021790555060026000838152602001908152602001600020600001600401600081546001019190508190555060026000838152602001908152602001600020600001600460006002600086815260200190815260200160002060000160000160009054906101000a900473ffffffffffffffffffffffffffffffffffffffff1673ffffffffffffffffffffffffffffffffffffffff1673ffffffffffffffffffffffffffffffffffffffff1681526020019081526020016000206000820160009054906101000a900473ffffffffffffffffffffffffffffffffffffffff168160000160006101000a81548173ffffffffffffffffffffffffffffffffffffffff021916908373ffffffffffffffffffffffffffffffffffffffff16021790555060018201816001019080546001816001161561010002031660029004611dcc929190613b42565b506002820154816002015560038201816003019080546001816001161561010002031660029004611dfe929190613b42565b50600482015481600401556005820154816005015590505060026000838152602001908152602001600020600001600080600260008681526020019081526020016000206000016002015481526020019081526020016000206000820160009054906101000a900473ffffffffffffffffffffffffffffffffffffffff168160000160006101000a81548173ffffffffffffffffffffffffffffffffffffffff021916908373ffffffffffffffffffffffffffffffffffffffff16021790555060018201816001019080546001816001161561010002031660029004611ee5929190613b42565b506002820154816002015560038201816003019080546001816001161561010002031660029004611f17929190613b42565b50600482015481600401556005820154816005015590505061221c565b600281141561221b57600280600084815260200190815260200160002060100160006101000a81548160ff02191690836003811115611f6f57fe5b021790555060026000838152602001908152602001600020600601600401600081546001019190508190555060026000838152602001908152602001600020600601600460006002600086815260200190815260200160002060060160000160009054906101000a900473ffffffffffffffffffffffffffffffffffffffff1673ffffffffffffffffffffffffffffffffffffffff1673ffffffffffffffffffffffffffffffffffffffff1681526020019081526020016000206000820160009054906101000a900473ffffffffffffffffffffffffffffffffffffffff168160000160006101000a81548173ffffffffffffffffffffffffffffffffffffffff021916908373ffffffffffffffffffffffffffffffffffffffff160217905550600182018160010190805460018160011615610100020316600290046120b7929190613b42565b5060028201548160020155600382018160030190805460018160011615610100020316600290046120e9929190613b42565b50600482015481600401556005820154816005015590505060026000838152602001908152602001600020600601600080600260008681526020019081526020016000206006016002015481526020019081526020016000206000820160009054906101000a900473ffffffffffffffffffffffffffffffffffffffff168160000160006101000a81548173ffffffffffffffffffffffffffffffffffffffff021916908373ffffffffffffffffffffffffffffffffffffffff160217905550600182018160010190805460018160011615610100020316600290046121d0929190613b42565b506002820154816002015560038201816003019080546001816001161561010002031660029004612202929190613b42565b5060048201548160040155600582015481600501559050505b5b5b5b5050565b600073ffffffffffffffffffffffffffffffffffffffff16600460003373ffffffffffffffffffffffffffffffffffffffff1673ffffffffffffffffffffffffffffffffffffffff16815260200190815260200160002060000160009054906101000a900473ffffffffffffffffffffffffffffffffffffffff1673ffffffffffffffffffffffffffffffffffffffff1614151515612329576040517f08c379a00000000000000000000000000000000000000000000000000000000081526004018080602001828103825260158152602001807f506c656173652c206c6f6720696e2066697273742e000000000000000000000081525060200191505060405180910390fd5b600460003373ffffffffffffffffffffffffffffffffffffffff1673ffffffffffffffffffffffffffffffffffffffff1681526020019081526020016000206002600060035481526020019081526020016000206000016000820160009054906101000a900473ffffffffffffffffffffffffffffffffffffffff168160000160006101000a81548173ffffffffffffffffffffffffffffffffffffffff021916908373ffffffffffffffffffffffffffffffffffffffff1602179055506001820181600101908054600181600116156101000203166002900461240e929190613b42565b506002820154816002015560038201816003019080546001816001161561010002031660029004612440929190613b42565b50600482015481600401556005820154816005015590505081600260006003548152602001908152602001600020600c018190555060008090505b828110156125045760008090505b838110156124f8576000600260006003548152602001908152602001600020600d016000848152602001908152602001600020600083815260200190815260200160002060006101000a81548160ff021916908360038111156124e857fe5b0217905550806001019050612489565b5080600101905061247b565b50600354600260006003548152602001908152602001600020600f01819055506000600260006003548152602001908152602001600020600e0160006101000a81548160ff0219169083600381111561255957fe5b021790555080600260006003548152602001908152602001600020601101908051906020019061258a929190613ac2565b50600460003373ffffffffffffffffffffffffffffffffffffffff1673ffffffffffffffffffffffffffffffffffffffff1681526020019081526020016000206002600060035481526020019081526020016000206000016000820160009054906101000a900473ffffffffffffffffffffffffffffffffffffffff168160000160006101000a81548173ffffffffffffffffffffffffffffffffffffffff021916908373ffffffffffffffffffffffffffffffffffffffff16021790555060018201816001019080546001816001161561010002031660029004612670929190613b42565b5060028201548160020155600382018160030190805460018160011615610100020316600290046126a2929190613b42565b506004820154816004015560058201548160050155905050600260006003548152602001908152602001600020600560003373ffffffffffffffffffffffffffffffffffffffff1673ffffffffffffffffffffffffffffffffffffffff16815260200190815260200160002060008201816000016000820160009054906101000a900473ffffffffffffffffffffffffffffffffffffffff168160000160006101000a81548173ffffffffffffffffffffffffffffffffffffffff021916908373ffffffffffffffffffffffffffffffffffffffff160217905550600182018160010190805460018160011615610100020316600290046127a4929190613b42565b5060028201548160020155600382018160030190805460018160011615610100020316600290046127d6929190613b42565b506004820154816004015560058201548160050155505060068201816006016000820160009054906101000a900473ffffffffffffffffffffffffffffffffffffffff168160000160006101000a81548173ffffffffffffffffffffffffffffffffffffffff021916908373ffffffffffffffffffffffffffffffffffffffff16021790555060018201816001019080546001816001161561010002031660029004612883929190613b42565b5060028201548160020155600382018160030190805460018160011615610100020316600290046128b5929190613b42565b5060048201548160040155600582015481600501555050600c82015481600c0155600e820160009054906101000a900460ff1681600e0160006101000a81548160ff0219169083600381111561290757fe5b0217905550600f82015481600f01556010820160009054906101000a900460ff168160100160006101000a81548160ff0219169083600381111561294757fe5b021790555060118201816011019080546001816001161561010002031660029004612973929190613b42565b509050506060602060405190810160405280600081525090506000816040516020018082805190602001908083835b6020831015156129c757805182526020820191506020810190506020830392506129a2565b6001836020036101000a03801982511681845116808217855250505050505090500191505060405160208183030381529060405280519060200120836040516020018082805190602001908083835b602083101515612a3b5780518252602082019150602081019050602083039250612a16565b6001836020036101000a038019825116818451168082178552505050505050905001915050604051602081830303815290604052805190602001201490507f0602a8839c64704c2e45d082488e98aaa78800f966b47107e7734e94e07babc960035482600460003373ffffffffffffffffffffffffffffffffffffffff1673ffffffffffffffffffffffffffffffffffffffff168152602001908152602001600020600101604051808481526020018315151515815260200180602001828103825283818154600181600116156101000203166002900481526020019150805460018160011615610100020316600290048015612b795780601f10612b4e57610100808354040283529160200191612b79565b820191906000526020600020905b815481529060010190602001808311612b5c57829003601f168201915b505094505050505060405180910390a16003600081546001019190508190555050505050565b60008073ffffffffffffffffffffffffffffffffffffffff16600460003373ffffffffffffffffffffffffffffffffffffffff1673ffffffffffffffffffffffffffffffffffffffff16815260200190815260200160002060000160009054906101000a900473ffffffffffffffffffffffffffffffffffffffff1673ffffffffffffffffffffffffffffffffffffffff1614151515612ca7576040517f08c379a00000000000000000000000000000000000000000000000000000000081526004018080602001828103825260158152602001807f506c656173652c206c6f6720696e2066697273742e000000000000000000000081525060200191505060405180910390fd5b600460003373ffffffffffffffffffffffffffffffffffffffff1673ffffffffffffffffffffffffffffffffffffffff16815260200190815260200160002060020154905090565b60008073ffffffffffffffffffffffffffffffffffffffff16600460003373ffffffffffffffffffffffffffffffffffffffff1673ffffffffffffffffffffffffffffffffffffffff16815260200190815260200160002060000160009054906101000a900473ffffffffffffffffffffffffffffffffffffffff1673ffffffffffffffffffffffffffffffffffffffff1614151515612df7576040517f08c379a00000000000000000000000000000000000000000000000000000000081526004018080602001828103825260158152602001807f506c656173652c206c6f6720696e2066697273742e000000000000000000000081525060200191505060405180910390fd5b600460003373ffffffffffffffffffffffffffffffffffffffff1673ffffffffffffffffffffffffffffffffffffffff16815260200190815260200160002060050154905090565b60008073ffffffffffffffffffffffffffffffffffffffff16600460003373ffffffffffffffffffffffffffffffffffffffff1673ffffffffffffffffffffffffffffffffffffffff16815260200190815260200160002060000160009054906101000a900473ffffffffffffffffffffffffffffffffffffffff1673ffffffffffffffffffffffffffffffffffffffff1614151515612f47576040517f08c379a00000000000000000000000000000000000000000000000000000000081526004018080602001828103825260158152602001807f506c656173652c206c6f6720696e2066697273742e000000000000000000000081525060200191505060405180910390fd5b600560003373ffffffffffffffffffffffffffffffffffffffff1673ffffffffffffffffffffffffffffffffffffffff168152602001908152602001600020600f0154905090565b60035483101515613008576040517f08c379a000000000000000000000000000000000000000000000000000000000815260040180806020018281038252600f8152602001807f4e6f20737563682067616d65203a28000000000000000000000000000000000081525060200191505060405180910390fd5b613010613bc9565b6002600085815260200190815260200160002060e060405190810160405290816000820160c060405190810160405290816000820160009054906101000a900473ffffffffffffffffffffffffffffffffffffffff1673ffffffffffffffffffffffffffffffffffffffff1673ffffffffffffffffffffffffffffffffffffffff168152602001600182018054600181600116156101000203166002900480601f01602080910402602001604051908101604052809291908181526020018280546001816001161561010002031660029004801561312f5780601f106131045761010080835404028352916020019161312f565b820191906000526020600020905b81548152906001019060200180831161311257829003601f168201915b5050505050815260200160028201548152602001600382018054600181600116156101000203166002900480601f0160208091040260200160405190810160405280929190818152602001828054600181600116156101000203166002900480156131db5780601f106131b0576101008083540402835291602001916131db565b820191906000526020600020905b8154815290600101906020018083116131be57829003601f168201915b505050505081526020016004820154815260200160058201548152505081526020016006820160c060405190810160405290816000820160009054906101000a900473ffffffffffffffffffffffffffffffffffffffff1673ffffffffffffffffffffffffffffffffffffffff1673ffffffffffffffffffffffffffffffffffffffff168152602001600182018054600181600116156101000203166002900480601f0160208091040260200160405190810160405280929190818152602001828054600181600116156101000203166002900480156132fc5780601f106132d1576101008083540402835291602001916132fc565b820191906000526020600020905b8154815290600101906020018083116132df57829003601f168201915b5050505050815260200160028201548152602001600382018054600181600116156101000203166002900480601f0160208091040260200160405190810160405280929190818152602001828054600181600116156101000203166002900480156133a85780601f1061337d576101008083540402835291602001916133a8565b820191906000526020600020905b81548152906001019060200180831161338b57829003601f168201915b50505050508152602001600482015481526020016005820154815250508152602001600c8201548152602001600e820160009054906101000a900460ff1660038111156133f157fe5b60038111156133fc57fe5b8152602001600f82015481526020016010820160009054906101000a900460ff16600381111561342857fe5b600381111561343357fe5b8152602001601182018054600181600116156101000203166002900480601f0160208091040260200160405190810160405280929190818152602001828054600181600116156101000203166002900480156134d05780601f106134a5576101008083540402835291602001916134d0565b820191906000526020600020905b8154815290600101906020018083116134b357829003601f168201915b505050505081525050905080600001516000015173ffffffffffffffffffffffffffffffffffffffff163373ffffffffffffffffffffffffffffffffffffffff161480613550575080602001516000015173ffffffffffffffffffffffffffffffffffffffff163373ffffffffffffffffffffffffffffffffffffffff16145b15156135c4576040517f08c379a000000000000000000000000000000000000000000000000000000000815260040180806020018281038252601c8152602001807f596f7520617265206e6f7420696e20746869732067616d65202d5f2d0000000081525060200191505060405180910390fd5b6003808111156135d057fe5b816060015160038111156135e057fe5b14151515613656576040517f08c379a000000000000000000000000000000000000000000000000000000000815260040180806020018281038252601c8152602001807f546869732067616d652068617320616c726561647920656e646564210000000081525060200191505060405180910390fd5b6000600381111561366357fe5b8160600151600381111561367357fe5b1415151561370f576040517f08c379a00000000000000000000000000000000000000000000000000000000081526004018080602001828103825260288152602001807f506c65617365207761697420666f7220746865206f7468657220706c6179657281526020017f20746f206a6f696e00000000000000000000000000000000000000000000000081525060400191505060405180910390fd5b613717613c2a565b6001600381111561372457fe5b8260600151600381111561373457fe5b14613743578160200151613749565b81600001515b90503373ffffffffffffffffffffffffffffffffffffffff16816000015173ffffffffffffffffffffffffffffffffffffffff161415156137f2576040517f08c379a00000000000000000000000000000000000000000000000000000000081526004018080602001828103825260148152602001807f4974206973206e6f7420796f7572207475726e2100000000000000000000000081525060200191505060405180910390fd5b816040015184108015613806575060008410155b80156138155750816040015183105b8015613822575060008310155b15156138bc576040517f08c379a00000000000000000000000000000000000000000000000000000000081526004018080602001828103825260268152602001807f696e76616c6964206d6f7665202d20706f736974696f6e20646f6573206e6f7481526020017f206578697374000000000000000000000000000000000000000000000000000081525060400191505060405180910390fd5b600060038111156138c957fe5b60026000878152602001908152602001600020600d016000868152602001908152602001600020600085815260200190815260200160002060009054906101000a900460ff16600381111561391a57fe5b1415156139b5576040517f08c379a00000000000000000000000000000000000000000000000000000000081526004018080602001828103825260258152602001807f696e76616c6964206d6f7665202d20706f736974696f6e20616c72656164792081526020017f74616b656e00000000000000000000000000000000000000000000000000000081525060400191505060405180910390fd5b816060015160026000878152602001908152602001600020600d016000868152602001908152602001600020600085815260200190815260200160002060006101000a81548160ff02191690836003811115613a0d57fe5b021790555060016003811115613a1f57fe5b82606001516003811115613a2f57fe5b14613a3b576001613a3e565b60025b60026000878152602001908152602001600020600e0160006101000a81548160ff02191690836003811115613a6f57fe5b02179055507fa218cea2e9947b0c680d2e445c4082ba77a2a203ee283ee9ccbe43658a6e7db485858560405180848152602001838152602001828152602001935050505060405180910390a15050505050565b828054600181600116156101000203166002900490600052602060002090601f016020900481019282601f10613b0357805160ff1916838001178555613b31565b82800160010185558215613b31579182015b82811115613b30578251825591602001919060010190613b15565b5b509050613b3e9190613c77565b5090565b828054600181600116156101000203166002900490600052602060002090601f016020900481019282601f10613b7b5780548555613bb8565b82800160010185558215613bb857600052602060002091601f016020900482015b82811115613bb7578254825591600101919060010190613b9c565b5b509050613bc59190613c77565b5090565b61022060405190810160405280613bde613c9c565b8152602001613beb613c9c565b81526020016000815260200160006003811115613c0457fe5b81526020016000815260200160006003811115613c1d57fe5b8152602001606081525090565b60c060405190810160405280600073ffffffffffffffffffffffffffffffffffffffff16815260200160608152602001600081526020016060815260200160008152602001600081525090565b613c9991905b80821115613c95576000816000905550600101613c7d565b5090565b90565b60c060405190810160405280600073ffffffffffffffffffffffffffffffffffffffff1681526020016060815260200160008152602001606081526020016000815260200160008152509056fea165627a7a72305820a70872f5f733c727a02528637be1cfb8880807fe69d44fe06f91a92f1e592a3e0029",
  "source": "pragma solidity >=0.4.22 <0.8.0;\n\ncontract TicTacToe{\n\n\tstruct Player{\n\t\taddress location;\n\t\tstring name;\n\t\tuint256 index;\n\t\tstring password;\n\t\tuint256 numWin;\n\t\tuint256 numPlayed;\n\t}\n\n\tmapping(uint256 => Player) private players;\n\tuint256 private numPlayers;\n\n\tenum state{ EMPTY, PLAYER1, PLAYER2, ENDED }\n\n\tstruct Game{\n\t\tPlayer player1;\n\t\tPlayer player2;\n\t\tuint len;\n\t\tmapping(uint => mapping(uint => state)) board;\n\t\tstate turn;\n\t\tuint256 index;\n\t\tstate winner;\n\t\tstring password;\n\t}\n\n\tmapping(uint256 => Game) private games;\n\tuint256 private numGames;\n\tmapping(address => Player) private resident;\n\tmapping(address => Game) private creation;\n\n\t//event NewPlayer(string name);\n\tevent NewGame(uint256 gameIndex, bool free, string name);\n\tevent PlayerJoinedGame(uint256 id, string name);\n\tevent PlayerMadeMove(uint256 gameIndex, uint row, uint col);\n\t//event GameOver(uint256 gameIndex);\n\n\tfunction addPlayer(string memory name, string memory password) public{\n\t\tplayers[numPlayers].location = msg.sender;\n\t\tplayers[numPlayers].name = name;\n\t\tplayers[numPlayers].index = numPlayers;\n\t\tplayers[numPlayers].password = password;\n\t\tplayers[numPlayers].numWin = 0;\n\t\tplayers[numPlayers].numPlayed = 0;\n\t\tresident[msg.sender] = players[numPlayers];\n\t\t++numPlayers;\n\t}\n\n\tfunction login(string memory name, uint256 id, string memory password) public{\n\t\trequire(id < numPlayers && id >= 0, \"invalid id!\");\n\t\trequire(keccak256(abi.encodePacked((players[id].name))) == keccak256(abi.encodePacked((name))) && keccak256(abi.encodePacked((players[id].password))) == keccak256(abi.encodePacked((password))), \"invalid name or password, please try again.\");\n\t\tplayers[id].location = msg.sender;\n\t\tresident[msg.sender] = players[id];\n\t\t//emit NewPlayer(name);\n\t}\n\n\tfunction createGame(uint Len, string memory password) public{\n\t\trequire(resident[msg.sender].location != address(0), \"Please, log in first.\");\n\t\tgames[numGames].player1 = resident[msg.sender];\n\t\tgames[numGames].len = Len;\n\t\tfor(uint i = 0; i < Len; ++i){\n\t\t\tfor(uint j = 0; j < Len; ++j){\n\t\t\t\tgames[numGames].board[i][j] = state.EMPTY;\n\t\t\t}\n\t\t}\n\t\tgames[numGames].index = numGames;\n\t\tgames[numGames].turn = state.EMPTY;\n\t\tgames[numGames].password = password;\n\t\tgames[numGames].player1 = resident[msg.sender];\n\t\tcreation[msg.sender] = games[numGames];\n\t\tstring memory emp = \"\";\n\t\tbool free = keccak256(abi.encodePacked((password))) == keccak256(abi.encodePacked((emp)));\n\t\temit NewGame(numGames, free, resident[msg.sender].name);\n\t\t++numGames;\n\t}\n\t\n\tfunction joinGame(uint256 gameInd, string memory password) public{\n\t\trequire(resident[msg.sender].location != address(0), \"Please, log in first.\");\n\t\trequire(gameInd < numGames, \"No such game :(\");\n\t\trequire(msg.sender != games[gameInd].player1.location, \"You are already in this game!\");\n\t\trequire(games[gameInd].player2.location == address(0), \"This game is already full :(\");\n\t\trequire(keccak256(abi.encodePacked((games[gameInd].password))) == keccak256(abi.encodePacked((password))), \"Incorrect Password!\");\n\t\t++games[gameInd].player1.numPlayed;\n\t\tresident[games[gameInd].player1.location] = games[gameInd].player1;\n\t\tplayers[games[gameInd].player1.index] = games[gameInd].player1;\n\t\t++resident[msg.sender].numPlayed;\n\t\tgames[gameInd].player2 = resident[msg.sender];\n\t\tplayers[games[gameInd].player2.index] = resident[msg.sender];\n\t\tgames[gameInd].turn = state.PLAYER1;\n\t\temit PlayerJoinedGame(gameInd, games[gameInd].player2.name);\n\t}\n\n\tfunction move(uint256 gameInd, uint row, uint col) public{\n\t\trequire(gameInd < numGames, \"No such game :(\");\n\t\tGame memory currentGame = games[gameInd];\n\t\trequire(msg.sender == currentGame.player1.location || msg.sender == currentGame.player2.location, \"You are not in this game -_-\");\n\t\trequire(currentGame.turn != state.ENDED, \"This game has already ended!\");\n\t\trequire(currentGame.turn != state.EMPTY, \"Please wait for the other player to join\");\n\t\tPlayer memory currentPlayer = ( currentGame.turn == state.PLAYER1) ? currentGame.player1 : currentGame.player2;\n\t\trequire(currentPlayer.location == msg.sender, \"It is not your turn!\");\n\t\trequire(row < currentGame.len && row >= 0 && col < currentGame.len && col >= 0, \"invalid move - position does not exist\");\n\t\trequire(games[gameInd].board[row][col] == state.EMPTY, \"invalid move - position already taken\");\n\t\tgames[gameInd].board[row][col] = currentGame.turn;\n\t\tgames[gameInd].turn = ( currentGame.turn == state.PLAYER1) ? state.PLAYER2 : state.PLAYER1;\n\t\temit PlayerMadeMove(gameInd, row, col);\n\t}\n\n\tfunction finishGame(uint256 gameInd, int winner) public{\n\t\trequire(gameInd < numGames, \"No such game :(\");\n\t\trequire(msg.sender == games[gameInd].player1.location || msg.sender == games[gameInd].player2.location, \"You are not in this game -_-\");\n\t\tif(games[gameInd].turn == state.ENDED) return;\n\t\tgames[gameInd].turn = state.ENDED;\n\t\tif(winner == 0)games[gameInd].winner = state.EMPTY;\n\t\telse if(winner == 1){\n\t\t\tgames[gameInd].winner = state.PLAYER1;\n\t\t\t++games[gameInd].player1.numWin;\n\t\t\tresident[games[gameInd].player1.location] = games[gameInd].player1;\n\t\t\tplayers[games[gameInd].player1.index] = games[gameInd].player1;\n\t\t}\n\t\telse if(winner == 2){\n\t\t\tgames[gameInd].winner = state.PLAYER2;\n\t\t\t++games[gameInd].player2.numWin;\n\t\t\tresident[games[gameInd].player2.location] = games[gameInd].player2;\n\t\t\tplayers[games[gameInd].player2.index] = games[gameInd].player2;\n\t\t}\n\t\t//emit GameOver(gameInd);\n\t}\n\n\tfunction getNumPlayed() public view returns (uint256){\n\t\trequire(resident[msg.sender].location != address(0), \"Please, log in first.\");\n\t\treturn resident[msg.sender].numPlayed;\n\t}\n\n\tfunction getNumWin() public view returns (uint256){\n\t\trequire(resident[msg.sender].location != address(0), \"Please, log in first.\");\n\t\treturn resident[msg.sender].numWin;\n\t}\n\n\tfunction getPlayerId() public view returns (uint256){\n\t\trequire(resident[msg.sender].location != address(0), \"Please, log in first.\");\n\t\treturn resident[msg.sender].index;\n\t}\n\n\tfunction getGameId() public view returns (uint256){\n\t\trequire(resident[msg.sender].location != address(0), \"Please, log in first.\");\n\t\treturn creation[msg.sender].index;\n\t}\n\n\n\t//function getActiveGames() public returns (\n\n}\n",
  "sourcePath": "/home/rubab/Documents/dApps/project/contracts/TicTacToe.sol",
  "compiler": {
    "name": "solc",
    "version": "0.5.1+commit.c8a2cb62.Emscripten.clang"
  },
  "schemaVersion": "3.3.2",
  "updatedAt": "2020-12-25T18:28:01.640Z",
  "networkType": "ethereum",
  "devdoc": {
    "methods": {}
  },
  "userdoc": {
    "methods": {}
  }
}